{
  "contractName": "AssetsManagement",
  "abi": [
    {
      "constant": true,
      "inputs": [
        {
          "name": "",
          "type": "address"
        }
      ],
      "name": "participants",
      "outputs": [
        {
          "name": "client",
          "type": "address"
        },
        {
          "name": "accountType",
          "type": "uint8"
        }
      ],
      "payable": false,
      "stateMutability": "view",
      "type": "function"
    },
    {
      "constant": true,
      "inputs": [
        {
          "name": "",
          "type": "address"
        },
        {
          "name": "",
          "type": "uint256"
        }
      ],
      "name": "calibrationsByCreator",
      "outputs": [
        {
          "name": "",
          "type": "uint256"
        }
      ],
      "payable": false,
      "stateMutability": "view",
      "type": "function"
    },
    {
      "constant": true,
      "inputs": [
        {
          "name": "",
          "type": "uint256"
        },
        {
          "name": "",
          "type": "uint256"
        }
      ],
      "name": "assetsByState",
      "outputs": [
        {
          "name": "",
          "type": "uint256"
        }
      ],
      "payable": false,
      "stateMutability": "view",
      "type": "function"
    },
    {
      "constant": true,
      "inputs": [],
      "name": "owner",
      "outputs": [
        {
          "name": "",
          "type": "address"
        }
      ],
      "payable": false,
      "stateMutability": "view",
      "type": "function"
    },
    {
      "constant": true,
      "inputs": [
        {
          "name": "",
          "type": "address"
        },
        {
          "name": "",
          "type": "uint256"
        }
      ],
      "name": "assetsByAdministrator",
      "outputs": [
        {
          "name": "",
          "type": "uint256"
        }
      ],
      "payable": false,
      "stateMutability": "view",
      "type": "function"
    },
    {
      "constant": true,
      "inputs": [
        {
          "name": "",
          "type": "uint256"
        }
      ],
      "name": "calibrations",
      "outputs": [
        {
          "name": "index",
          "type": "uint256"
        },
        {
          "name": "assetIndex",
          "type": "uint256"
        },
        {
          "name": "Date",
          "type": "string"
        },
        {
          "name": "CalibrationType1",
          "type": "string"
        },
        {
          "name": "CalibrationType2",
          "type": "string"
        },
        {
          "name": "CalibrationType3",
          "type": "string"
        },
        {
          "name": "CalibratedBy",
          "type": "address"
        }
      ],
      "payable": false,
      "stateMutability": "view",
      "type": "function"
    },
    {
      "constant": true,
      "inputs": [
        {
          "name": "",
          "type": "uint256"
        }
      ],
      "name": "assets",
      "outputs": [
        {
          "name": "index",
          "type": "uint256"
        },
        {
          "name": "creator",
          "type": "address"
        },
        {
          "name": "Item",
          "type": "string"
        },
        {
          "name": "SerialNumber",
          "type": "string"
        },
        {
          "name": "DateCommissioned",
          "type": "string"
        },
        {
          "name": "Administrator",
          "type": "address"
        },
        {
          "name": "state",
          "type": "uint8"
        }
      ],
      "payable": false,
      "stateMutability": "view",
      "type": "function"
    },
    {
      "constant": true,
      "inputs": [
        {
          "name": "",
          "type": "uint256"
        }
      ],
      "name": "allDrivers",
      "outputs": [
        {
          "name": "",
          "type": "address"
        }
      ],
      "payable": false,
      "stateMutability": "view",
      "type": "function"
    },
    {
      "constant": true,
      "inputs": [],
      "name": "assetIndex",
      "outputs": [
        {
          "name": "",
          "type": "uint256"
        }
      ],
      "payable": false,
      "stateMutability": "view",
      "type": "function"
    },
    {
      "constant": true,
      "inputs": [
        {
          "name": "",
          "type": "address"
        },
        {
          "name": "",
          "type": "uint256"
        }
      ],
      "name": "assetsByCreator",
      "outputs": [
        {
          "name": "",
          "type": "uint256"
        }
      ],
      "payable": false,
      "stateMutability": "view",
      "type": "function"
    },
    {
      "constant": true,
      "inputs": [],
      "name": "calibrationsIndex",
      "outputs": [
        {
          "name": "",
          "type": "uint256"
        }
      ],
      "payable": false,
      "stateMutability": "view",
      "type": "function"
    },
    {
      "inputs": [],
      "payable": false,
      "stateMutability": "nonpayable",
      "type": "constructor"
    },
    {
      "anonymous": false,
      "inputs": [
        {
          "indexed": true,
          "name": "sender",
          "type": "address"
        },
        {
          "indexed": false,
          "name": "_type",
          "type": "uint8"
        }
      ],
      "name": "SignupEvent",
      "type": "event"
    },
    {
      "anonymous": false,
      "inputs": [
        {
          "indexed": true,
          "name": "sender",
          "type": "address"
        },
        {
          "indexed": false,
          "name": "assetid",
          "type": "uint256"
        }
      ],
      "name": "AddAssetEvent",
      "type": "event"
    },
    {
      "anonymous": false,
      "inputs": [
        {
          "indexed": true,
          "name": "sender",
          "type": "address"
        },
        {
          "indexed": false,
          "name": "calibrationsid",
          "type": "uint256"
        }
      ],
      "name": "AddCalibrationsEvent",
      "type": "event"
    },
    {
      "constant": false,
      "inputs": [
        {
          "name": "_type",
          "type": "uint8"
        }
      ],
      "name": "signup",
      "outputs": [],
      "payable": false,
      "stateMutability": "nonpayable",
      "type": "function"
    },
    {
      "constant": true,
      "inputs": [],
      "name": "getAllDrivers",
      "outputs": [
        {
          "name": "",
          "type": "address[]"
        }
      ],
      "payable": false,
      "stateMutability": "view",
      "type": "function"
    },
    {
      "constant": false,
      "inputs": [
        {
          "name": "item",
          "type": "string"
        },
        {
          "name": "serialNumber",
          "type": "string"
        },
        {
          "name": "dateCommissioned",
          "type": "string"
        },
        {
          "name": "administrator",
          "type": "address"
        }
      ],
      "name": "addAsset",
      "outputs": [],
      "payable": false,
      "stateMutability": "nonpayable",
      "type": "function"
    },
    {
      "constant": true,
      "inputs": [
        {
          "name": "_administrator",
          "type": "address"
        }
      ],
      "name": "getAssetByAdministrator",
      "outputs": [
        {
          "name": "",
          "type": "uint256[]"
        }
      ],
      "payable": false,
      "stateMutability": "view",
      "type": "function"
    },
    {
      "constant": true,
      "inputs": [
        {
          "name": "_creator",
          "type": "address"
        }
      ],
      "name": "getAssetByCreator",
      "outputs": [
        {
          "name": "",
          "type": "uint256[]"
        }
      ],
      "payable": false,
      "stateMutability": "view",
      "type": "function"
    },
    {
      "constant": true,
      "inputs": [
        {
          "name": "_status",
          "type": "uint256"
        }
      ],
      "name": "getAssetByState",
      "outputs": [
        {
          "name": "",
          "type": "uint256[]"
        }
      ],
      "payable": false,
      "stateMutability": "view",
      "type": "function"
    },
    {
      "constant": false,
      "inputs": [
        {
          "name": "_assetIndex",
          "type": "uint256"
        },
        {
          "name": "_date",
          "type": "string"
        },
        {
          "name": "_calibrationType1",
          "type": "string"
        },
        {
          "name": "_calibrationType2",
          "type": "string"
        },
        {
          "name": "_calibrationType3",
          "type": "string"
        }
      ],
      "name": "addCalibration",
      "outputs": [],
      "payable": false,
      "stateMutability": "nonpayable",
      "type": "function"
    },
    {
      "constant": true,
      "inputs": [
        {
          "name": "_creator",
          "type": "address"
        }
      ],
      "name": "getCalibrationsByCreator",
      "outputs": [
        {
          "name": "",
          "type": "uint256[]"
        }
      ],
      "payable": false,
      "stateMutability": "view",
      "type": "function"
    }
  ],
  "bytecode": "0x608060405234801561001057600080fd5b50336000806101000a81548173ffffffffffffffffffffffffffffffffffffffff021916908373ffffffffffffffffffffffffffffffffffffffff1602179055506125b3806100606000396000f3fe608060405260043610610101576000357c01000000000000000000000000000000000000000000000000000000009004806309e69ede14610106578063100c9c31146101ac5780631f21e7af1461021b57806369f3569b146102745780636b859bb41461048a5780636cbac4a8146107215780638c259a9b1461078d5780638da5cb5b1461083357806397593ce51461088a5780639a33d102146108f9578063cc01959e14610989578063cf10134f14610a2f578063cf35bdd014610c68578063d844b1d214610e76578063e07b098a14610ef1578063e64707e214610f1c578063e99ef1e514610f8b578063fd061fb414611031578063fd0a46e21461106f575b600080fd5b34801561011257600080fd5b506101556004803603602081101561012957600080fd5b81019080803573ffffffffffffffffffffffffffffffffffffffff16906020019092919050505061109a565b604051808373ffffffffffffffffffffffffffffffffffffffff1673ffffffffffffffffffffffffffffffffffffffff16815260200182600281111561019757fe5b60ff1681526020019250505060405180910390f35b3480156101b857600080fd5b50610205600480360360408110156101cf57600080fd5b81019080803573ffffffffffffffffffffffffffffffffffffffff169060200190929190803590602001909291905050506110eb565b6040518082815260200191505060405180910390f35b34801561022757600080fd5b5061025e6004803603604081101561023e57600080fd5b81019080803590602001909291908035906020019092919050505061111b565b6040518082815260200191505060405180910390f35b34801561028057600080fd5b506104886004803603608081101561029757600080fd5b81019080803590602001906401000000008111156102b457600080fd5b8201836020820111156102c657600080fd5b803590602001918460018302840111640100000000831117156102e857600080fd5b91908080601f016020809104026020016040519081016040528093929190818152602001838380828437600081840152601f19601f8201169050808301925050505050505091929192908035906020019064010000000081111561034b57600080fd5b82018360208201111561035d57600080fd5b8035906020019184600183028401116401000000008311171561037f57600080fd5b91908080601f016020809104026020016040519081016040528093929190818152602001838380828437600081840152601f19601f820116905080830192505050505050509192919290803590602001906401000000008111156103e257600080fd5b8201836020820111156103f457600080fd5b8035906020019184600183028401116401000000008311171561041657600080fd5b91908080601f016020809104026020016040519081016040528093929190818152602001838380828437600081840152601f19601f820116905080830192505050505050509192919290803573ffffffffffffffffffffffffffffffffffffffff16906020019092919050505061114b565b005b34801561049657600080fd5b5061071f600480360360a08110156104ad57600080fd5b8101908080359060200190929190803590602001906401000000008111156104d457600080fd5b8201836020820111156104e657600080fd5b8035906020019184600183028401116401000000008311171561050857600080fd5b91908080601f016020809104026020016040519081016040528093929190818152602001838380828437600081840152601f19601f8201169050808301925050505050505091929192908035906020019064010000000081111561056b57600080fd5b82018360208201111561057d57600080fd5b8035906020019184600183028401116401000000008311171561059f57600080fd5b91908080601f016020809104026020016040519081016040528093929190818152602001838380828437600081840152601f19601f8201169050808301925050505050505091929192908035906020019064010000000081111561060257600080fd5b82018360208201111561061457600080fd5b8035906020019184600183028401116401000000008311171561063657600080fd5b91908080601f016020809104026020016040519081016040528093929190818152602001838380828437600081840152601f19601f8201169050808301925050505050505091929192908035906020019064010000000081111561069957600080fd5b8201836020820111156106ab57600080fd5b803590602001918460018302840111640100000000831117156106cd57600080fd5b91908080601f016020809104026020016040519081016040528093929190818152602001838380828437600081840152601f19601f82011690508083019250505050505050919291929050505061154e565b005b34801561072d57600080fd5b5061073661196a565b6040518080602001828103825283818151815260200191508051906020019060200280838360005b8381101561077957808201518184015260208101905061075e565b505050509050019250505060405180910390f35b34801561079957600080fd5b506107dc600480360360208110156107b057600080fd5b81019080803573ffffffffffffffffffffffffffffffffffffffff1690602001909291905050506119f8565b6040518080602001828103825283818151815260200191508051906020019060200280838360005b8381101561081f578082015181840152602081019050610804565b505050509050019250505060405180910390f35b34801561083f57600080fd5b50610848611a8f565b604051808273ffffffffffffffffffffffffffffffffffffffff1673ffffffffffffffffffffffffffffffffffffffff16815260200191505060405180910390f35b34801561089657600080fd5b506108e3600480360360408110156108ad57600080fd5b81019080803573ffffffffffffffffffffffffffffffffffffffff16906020019092919080359060200190929190505050611ab4565b6040518082815260200191505060405180910390f35b34801561090557600080fd5b506109326004803603602081101561091c57600080fd5b8101908080359060200190929190505050611ae4565b6040518080602001828103825283818151815260200191508051906020019060200280838360005b8381101561097557808201518184015260208101905061095a565b505050509050019250505060405180910390f35b34801561099557600080fd5b506109d8600480360360208110156109ac57600080fd5b81019080803573ffffffffffffffffffffffffffffffffffffffff169060200190929190505050611b4f565b6040518080602001828103825283818151815260200191508051906020019060200280838360005b83811015610a1b578082015181840152602081019050610a00565b505050509050019250505060405180910390f35b348015610a3b57600080fd5b50610a6860048036036020811015610a5257600080fd5b8101908080359060200190929190505050611be6565b60405180888152602001878152602001806020018060200180602001806020018673ffffffffffffffffffffffffffffffffffffffff1673ffffffffffffffffffffffffffffffffffffffff16815260200185810385528a818151815260200191508051906020019080838360005b83811015610af2578082015181840152602081019050610ad7565b50505050905090810190601f168015610b1f5780820380516001836020036101000a031916815260200191505b50858103845289818151815260200191508051906020019080838360005b83811015610b58578082015181840152602081019050610b3d565b50505050905090810190601f168015610b855780820380516001836020036101000a031916815260200191505b50858103835288818151815260200191508051906020019080838360005b83811015610bbe578082015181840152602081019050610ba3565b50505050905090810190601f168015610beb5780820380516001836020036101000a031916815260200191505b50858103825287818151815260200191508051906020019080838360005b83811015610c24578082015181840152602081019050610c09565b50505050905090810190601f168015610c515780820380516001836020036101000a031916815260200191505b509b50505050505050505050505060405180910390f35b348015610c7457600080fd5b50610ca160048036036020811015610c8b57600080fd5b8101908080359060200190929190505050611ea8565b604051808881526020018773ffffffffffffffffffffffffffffffffffffffff1673ffffffffffffffffffffffffffffffffffffffff1681526020018060200180602001806020018673ffffffffffffffffffffffffffffffffffffffff1673ffffffffffffffffffffffffffffffffffffffff168152602001856001811115610d2757fe5b60ff168152602001848103845289818151815260200191508051906020019080838360005b83811015610d67578082015181840152602081019050610d4c565b50505050905090810190601f168015610d945780820380516001836020036101000a031916815260200191505b50848103835288818151815260200191508051906020019080838360005b83811015610dcd578082015181840152602081019050610db2565b50505050905090810190601f168015610dfa5780820380516001836020036101000a031916815260200191505b50848103825287818151815260200191508051906020019080838360005b83811015610e33578082015181840152602081019050610e18565b50505050905090810190601f168015610e605780820380516001836020036101000a031916815260200191505b509a505050505050505050505060405180910390f35b348015610e8257600080fd5b50610eaf60048036036020811015610e9957600080fd5b81019080803590602001909291905050506120ff565b604051808273ffffffffffffffffffffffffffffffffffffffff1673ffffffffffffffffffffffffffffffffffffffff16815260200191505060405180910390f35b348015610efd57600080fd5b50610f0661213d565b6040518082815260200191505060405180910390f35b348015610f2857600080fd5b50610f7560048036036040811015610f3f57600080fd5b81019080803573ffffffffffffffffffffffffffffffffffffffff16906020019092919080359060200190929190505050612143565b6040518082815260200191505060405180910390f35b348015610f9757600080fd5b50610fda60048036036020811015610fae57600080fd5b81019080803573ffffffffffffffffffffffffffffffffffffffff169060200190929190505050612173565b6040518080602001828103825283818151815260200191508051906020019060200280838360005b8381101561101d578082015181840152602081019050611002565b505050509050019250505060405180910390f35b34801561103d57600080fd5b5061106d6004803603602081101561105457600080fd5b81019080803560ff16906020019092919050505061220a565b005b34801561107b57600080fd5b506110846124dc565b6040518082815260200191505060405180910390f35b60036020528060005260406000206000915090508060000160009054906101000a900473ffffffffffffffffffffffffffffffffffffffff16908060000160149054906101000a900460ff16905082565b60096020528160005260406000208181548110151561110657fe5b90600052602060002001600091509150505481565b60076020528160005260406000208181548110151561113657fe5b90600052602060002001600091509150505481565b6000600281111561115857fe5b600360003373ffffffffffffffffffffffffffffffffffffffff1673ffffffffffffffffffffffffffffffffffffffff16815260200190815260200160002060000160149054906101000a900460ff1660028111156111b357fe5b141515611228576040517f08c379a00000000000000000000000000000000000000000000000000000000081526004018080602001828103825260178152602001807f53656e646572206973206e6f742061206465616c65722e00000000000000000081525060200191505060405180910390fd5b60016000815480929190600101919050555060e06040519081016040528060015481526020013373ffffffffffffffffffffffffffffffffffffffff1681526020018581526020018481526020018381526020018273ffffffffffffffffffffffffffffffffffffffff168152602001600060018111156112a557fe5b8152506004600060015481526020019081526020016000206000820151816000015560208201518160010160006101000a81548173ffffffffffffffffffffffffffffffffffffffff021916908373ffffffffffffffffffffffffffffffffffffffff160217905550604082015181600201908051906020019061132a9291906124e2565b5060608201518160030190805190602001906113479291906124e2565b5060808201518160040190805190602001906113649291906124e2565b5060a08201518160050160006101000a81548173ffffffffffffffffffffffffffffffffffffffff021916908373ffffffffffffffffffffffffffffffffffffffff16021790555060c08201518160050160146101000a81548160ff021916908360018111156113d057fe5b0217905550905050600560003373ffffffffffffffffffffffffffffffffffffffff1673ffffffffffffffffffffffffffffffffffffffff1681526020019081526020016000206001549080600181540180825580915050906001820390600052602060002001600090919290919091505550600660008273ffffffffffffffffffffffffffffffffffffffff1673ffffffffffffffffffffffffffffffffffffffff1681526020019081526020016000206001549080600181540180825580915050906001820390600052602060002001600090919290919091505550600760008060018111156114be57fe5b815260200190815260200160002060015490806001815401808255809150509060018203906000526020600020016000909192909190915055503373ffffffffffffffffffffffffffffffffffffffff167faff77563897b6f6292105ed3ce5943bd6221ed93712f065eefaa7ab51a9774336002546040518082815260200191505060405180910390a250505050565b6001600281111561155b57fe5b600360003373ffffffffffffffffffffffffffffffffffffffff1673ffffffffffffffffffffffffffffffffffffffff16815260200190815260200160002060000160149054906101000a900460ff1660028111156115b657fe5b14151561162b576040517f08c379a000000000000000000000000000000000000000000000000000000000815260040180806020018281038252601f8152602001807f53656e646572206973206e6f74206120736572766963652063656e7465722e0081525060200191505060405180910390fd5b60026000815480929190600101919050555060e06040519081016040528060025481526020018681526020018581526020018481526020018381526020018281526020013373ffffffffffffffffffffffffffffffffffffffff16815250600860006002548152602001908152602001600020600082015181600001556020820151816001015560408201518160020190805190602001906116ce9291906124e2565b5060608201518160030190805190602001906116eb9291906124e2565b5060808201518160040190805190602001906117089291906124e2565b5060a08201518160050190805190602001906117259291906124e2565b5060c08201518160060160006101000a81548173ffffffffffffffffffffffffffffffffffffffff021916908373ffffffffffffffffffffffffffffffffffffffff160217905550905050600960003373ffffffffffffffffffffffffffffffffffffffff1673ffffffffffffffffffffffffffffffffffffffff168152602001908152602001600020600254908060018154018082558091505090600182039060005260206000200160009091929091909150555060016004600087815260200190815260200160002060050160146101000a81548160ff0219169083600181111561180e57fe5b02179055506007600060018081111561182357fe5b815260200190815260200160002085908060018154018082558091505090600182039060005260206000200160009091929091909150555060008090505b6007600080600181111561187157fe5b81526020019081526020016000208054905081101561191257856007600080600181111561189b57fe5b8152602001908152602001600020828154811015156118b657fe5b9060005260206000200154141561190557600760008060018111156118d757fe5b8152602001908152602001600020818154811015156118f257fe5b9060005260206000200160009055611912565b8080600101915050611861565b503373ffffffffffffffffffffffffffffffffffffffff167f28e8afde4df8f8c71003c736fd6c7c20eb4370e98aafead4223777cbf88c013b6002546040518082815260200191505060405180910390a25050505050565b6060600a8054806020026020016040519081016040528092919081815260200182805480156119ee57602002820191906000526020600020905b8160009054906101000a900473ffffffffffffffffffffffffffffffffffffffff1673ffffffffffffffffffffffffffffffffffffffff16815260200190600101908083116119a4575b5050505050905090565b6060600560008373ffffffffffffffffffffffffffffffffffffffff1673ffffffffffffffffffffffffffffffffffffffff168152602001908152602001600020805480602002602001604051908101604052809291908181526020018280548015611a8357602002820191906000526020600020905b815481526020019060010190808311611a6f575b50505050509050919050565b6000809054906101000a900473ffffffffffffffffffffffffffffffffffffffff1681565b600660205281600052604060002081815481101515611acf57fe5b90600052602060002001600091509150505481565b606060076000838152602001908152602001600020805480602002602001604051908101604052809291908181526020018280548015611b4357602002820191906000526020600020905b815481526020019060010190808311611b2f575b50505050509050919050565b6060600660008373ffffffffffffffffffffffffffffffffffffffff1673ffffffffffffffffffffffffffffffffffffffff168152602001908152602001600020805480602002602001604051908101604052809291908181526020018280548015611bda57602002820191906000526020600020905b815481526020019060010190808311611bc6575b50505050509050919050565b6008602052806000526040600020600091509050806000015490806001015490806002018054600181600116156101000203166002900480601f016020809104026020016040519081016040528092919081815260200182805460018160011615610100020316600290048015611c9e5780601f10611c7357610100808354040283529160200191611c9e565b820191906000526020600020905b815481529060010190602001808311611c8157829003601f168201915b505050505090806003018054600181600116156101000203166002900480601f016020809104026020016040519081016040528092919081815260200182805460018160011615610100020316600290048015611d3c5780601f10611d1157610100808354040283529160200191611d3c565b820191906000526020600020905b815481529060010190602001808311611d1f57829003601f168201915b505050505090806004018054600181600116156101000203166002900480601f016020809104026020016040519081016040528092919081815260200182805460018160011615610100020316600290048015611dda5780601f10611daf57610100808354040283529160200191611dda565b820191906000526020600020905b815481529060010190602001808311611dbd57829003601f168201915b505050505090806005018054600181600116156101000203166002900480601f016020809104026020016040519081016040528092919081815260200182805460018160011615610100020316600290048015611e785780601f10611e4d57610100808354040283529160200191611e78565b820191906000526020600020905b815481529060010190602001808311611e5b57829003601f168201915b5050505050908060060160009054906101000a900473ffffffffffffffffffffffffffffffffffffffff16905087565b60046020528060005260406000206000915090508060000154908060010160009054906101000a900473ffffffffffffffffffffffffffffffffffffffff1690806002018054600181600116156101000203166002900480601f016020809104026020016040519081016040528092919081815260200182805460018160011615610100020316600290048015611f805780601f10611f5557610100808354040283529160200191611f80565b820191906000526020600020905b815481529060010190602001808311611f6357829003601f168201915b505050505090806003018054600181600116156101000203166002900480601f01602080910402602001604051908101604052809291908181526020018280546001816001161561010002031660029004801561201e5780601f10611ff35761010080835404028352916020019161201e565b820191906000526020600020905b81548152906001019060200180831161200157829003601f168201915b505050505090806004018054600181600116156101000203166002900480601f0160208091040260200160405190810160405280929190818152602001828054600181600116156101000203166002900480156120bc5780601f10612091576101008083540402835291602001916120bc565b820191906000526020600020905b81548152906001019060200180831161209f57829003601f168201915b5050505050908060050160009054906101000a900473ffffffffffffffffffffffffffffffffffffffff16908060050160149054906101000a900460ff16905087565b600a8181548110151561210e57fe5b906000526020600020016000915054906101000a900473ffffffffffffffffffffffffffffffffffffffff1681565b60015481565b60056020528160005260406000208181548110151561215e57fe5b90600052602060002001600091509150505481565b6060600960008373ffffffffffffffffffffffffffffffffffffffff1673ffffffffffffffffffffffffffffffffffffffff1681526020019081526020016000208054806020026020016040519081016040528092919081815260200182805480156121fe57602002820191906000526020600020905b8154815260200190600101908083116121ea575b50505050509050919050565b600360003373ffffffffffffffffffffffffffffffffffffffff1673ffffffffffffffffffffffffffffffffffffffff16815260200190815260200160002060000160009054906101000a900473ffffffffffffffffffffffffffffffffffffffff1673ffffffffffffffffffffffffffffffffffffffff163373ffffffffffffffffffffffffffffffffffffffff1614151515612310576040517f08c379a00000000000000000000000000000000000000000000000000000000081526004018080602001828103825260188152602001807f53656e646572206973206e6f7420796574207369676e7570000000000000000081525060200191505060405180910390fd5b60408051908101604052803373ffffffffffffffffffffffffffffffffffffffff16815260200182600281111561234357fe5b815250600360003373ffffffffffffffffffffffffffffffffffffffff1673ffffffffffffffffffffffffffffffffffffffff16815260200190815260200160002060008201518160000160006101000a81548173ffffffffffffffffffffffffffffffffffffffff021916908373ffffffffffffffffffffffffffffffffffffffff16021790555060208201518160000160146101000a81548160ff021916908360028111156123f057fe5b021790555090505080600281111561240457fe5b60028081111561241057fe5b141561247d57600a3390806001815401808255809150509060018203906000526020600020016000909192909190916101000a81548173ffffffffffffffffffffffffffffffffffffffff021916908373ffffffffffffffffffffffffffffffffffffffff160217905550505b3373ffffffffffffffffffffffffffffffffffffffff167fd93e0959190f2f576553317f9c17f456c15bfbcfd4c7f0c1f14cef985b453ebb82604051808260028111156124c657fe5b60ff16815260200191505060405180910390a250565b60025481565b828054600181600116156101000203166002900490600052602060002090601f016020900481019282601f1061252357805160ff1916838001178555612551565b82800160010185558215612551579182015b82811115612550578251825591602001919060010190612535565b5b50905061255e9190612562565b5090565b61258491905b80821115612580576000816000905550600101612568565b5090565b9056fea165627a7a72305820d2724f5055dcecdc2bd7273bc3299d797f7b4e80c20bdd9d09b0b77e8f0471a00029",
  "source": "pragma solidity ^0.5.0;\n\ncontract AssetsManagement {\n\n  enum AccountType { DEALER, SERVICE_CENTER, DRIVER }\n  enum AssetState { CREATED, CALIBRATED }\n\n  struct ParticipantDetail {\n    address client;\n    AccountType accountType;\n  }\n\n  struct Asset {\n    uint256 index;\n    address creator;\n    string Item;\n    string SerialNumber;\n    string DateCommissioned;\n    address Administrator;\n    AssetState state;\n  }\n\n  struct Calibration {\n    uint256 index;\n    uint256 assetIndex;\n    string Date;\n    string CalibrationType1;\n    string CalibrationType2;\n    string CalibrationType3;\n    address CalibratedBy;\n  }\n\n  address public owner;\n  uint256 public assetIndex;\n  uint256 public calibrationsIndex;\n\n  mapping(address => ParticipantDetail) public participants;\n  mapping(uint256 => Asset) public assets;\n  mapping(address => uint256[]) public assetsByCreator;\n  mapping(address => uint256[]) public assetsByAdministrator;\n  mapping(uint => uint256[]) public assetsByState;\n\n  mapping(uint256 => Calibration) public calibrations;\n  mapping(address => uint256[]) public calibrationsByCreator;\n\n  address[] public allDrivers;\n\n  // EVENTS\n\n  event SignupEvent(address indexed sender, AccountType _type);\n  event AddAssetEvent(address indexed sender, uint256 assetid);\n  event AddCalibrationsEvent(address indexed sender, uint calibrationsid);\n\n  // EVENTS ENDS\n\n  modifier onlyOwner() {\n    require(msg.sender == owner, \"Sender is not owner.\");\n    _;\n  }\n\n  constructor() public {\n    owner = msg.sender;\n  }\n\n  function signup(\n    AccountType _type\n  ) public {\n    require(msg.sender != participants[msg.sender].client, \"Sender is not yet signup\");\n\n    participants[msg.sender] = ParticipantDetail(msg.sender, _type);\n\n    if(AccountType.DRIVER == _type){\n      allDrivers.push(msg.sender);\n    }\n\n    emit SignupEvent(msg.sender, _type);\n  }\n\n  function getAllDrivers() public view returns (address[] memory){\n    return allDrivers;\n  }\n\n\n  function addAsset (\n    string memory item,\n    string memory serialNumber,\n    string memory dateCommissioned,\n    address administrator\n  ) public {\n\n    require(\n      participants[msg.sender].accountType == AccountType.DEALER,\n      \"Sender is not a dealer.\"\n    );\n\n    assetIndex++;\n    assets[assetIndex] = Asset(\n      assetIndex,\n      msg.sender,\n      item,\n      serialNumber,\n      dateCommissioned,\n      administrator,\n      AssetState.CREATED\n    );\n\n    assetsByCreator[msg.sender].push(assetIndex);\n    assetsByAdministrator[administrator].push(assetIndex);\n    assetsByState[uint(AssetState.CREATED)].push(assetIndex);\n\n    emit AddAssetEvent(msg.sender, calibrationsIndex);\n  }\n\n  function getAssetByAdministrator(address _administrator) public view returns (uint256[] memory) {\n    return assetsByAdministrator[_administrator];\n  }\n\n  function getAssetByCreator(address _creator) public view returns (uint256[] memory) {\n    return assetsByCreator[_creator];\n  }\n\n  function getAssetByState (uint _status) public view returns (uint256[] memory) {\n    return assetsByState[_status];\n  }\n\n  function addCalibration (\n    uint256 _assetIndex,\n    string memory _date,\n    string memory _calibrationType1,\n    string memory _calibrationType2,\n    string memory _calibrationType3\n  ) public {\n\n    require(\n      participants[msg.sender].accountType == AccountType.SERVICE_CENTER,\n      \"Sender is not a service center.\"\n    );\n\n    calibrationsIndex++;\n    calibrations[calibrationsIndex] = Calibration(\n      calibrationsIndex,\n      _assetIndex,\n      _date,\n      _calibrationType1,\n      _calibrationType2,\n      _calibrationType3,\n      msg.sender\n    );\n\n    calibrationsByCreator[msg.sender].push(calibrationsIndex);\n\n    assets[_assetIndex].state = AssetState.CALIBRATED;\n    assetsByState[uint(AssetState.CALIBRATED)].push(_assetIndex);\n\n    for ( uint i=0; i<assetsByState[uint(AssetState.CREATED)].length; i++ ) {\n      if(assetsByState[uint(AssetState.CREATED)][i] == _assetIndex){\n        //assetsByState[uint(AssetState.CREATED)][i] = 0;\n        delete assetsByState[uint(AssetState.CREATED)][i];\n        break;\n      }\n    }\n\n    emit AddCalibrationsEvent(msg.sender, calibrationsIndex);\n  }\n\n  function getCalibrationsByCreator(address _creator) public view returns (uint256[] memory) {\n    return calibrationsByCreator[_creator];\n  }\n}\n",
  "sourcePath": "C:/xampp/htdocs/BLOCKCHAIN/Asset-Management/contracts/AssetsManagement.sol",
  "compiler": {
    "name": "solc",
    "version": "0.5.1+commit.c8a2cb62.Emscripten.clang"
  },
  "schemaVersion": "3.0.16",
  "updatedAt": "2019-10-26T10:50:43.633Z",
  "devdoc": {
    "methods": {}
  },
  "userdoc": {
    "methods": {}
  }
}