{
  "contractName": "AssetsManagement",
  "abi": [
    {
      "constant": true,
      "inputs": [
        {
          "name": "",
          "type": "address"
        }
      ],
      "name": "participants",
      "outputs": [
        {
          "name": "client",
          "type": "address"
        },
        {
          "name": "accountType",
          "type": "uint8"
        }
      ],
      "payable": false,
      "stateMutability": "view",
      "type": "function"
    },
    {
      "constant": true,
      "inputs": [],
      "name": "owner",
      "outputs": [
        {
          "name": "",
          "type": "address"
        }
      ],
      "payable": false,
      "stateMutability": "view",
      "type": "function"
    },
    {
      "constant": true,
      "inputs": [
        {
          "name": "",
          "type": "uint256"
        }
      ],
      "name": "calibrations",
      "outputs": [
        {
          "name": "index",
          "type": "uint256"
        },
        {
          "name": "assetIndex",
          "type": "uint256"
        },
        {
          "name": "Date",
          "type": "string"
        },
        {
          "name": "CalibrationType1",
          "type": "string"
        },
        {
          "name": "CalibrationType2",
          "type": "string"
        },
        {
          "name": "CalibrationType3",
          "type": "string"
        },
        {
          "name": "CalibratedBy",
          "type": "address"
        }
      ],
      "payable": false,
      "stateMutability": "view",
      "type": "function"
    },
    {
      "constant": true,
      "inputs": [
        {
          "name": "",
          "type": "uint256"
        }
      ],
      "name": "assets",
      "outputs": [
        {
          "name": "index",
          "type": "uint256"
        },
        {
          "name": "creator",
          "type": "address"
        },
        {
          "name": "Item",
          "type": "string"
        },
        {
          "name": "SerialNumber",
          "type": "string"
        },
        {
          "name": "DateCommissioned",
          "type": "string"
        },
        {
          "name": "Administrator",
          "type": "address"
        }
      ],
      "payable": false,
      "stateMutability": "view",
      "type": "function"
    },
    {
      "constant": true,
      "inputs": [],
      "name": "assetIndex",
      "outputs": [
        {
          "name": "",
          "type": "uint256"
        }
      ],
      "payable": false,
      "stateMutability": "view",
      "type": "function"
    },
    {
      "constant": true,
      "inputs": [],
      "name": "calibrationsIndex",
      "outputs": [
        {
          "name": "",
          "type": "uint256"
        }
      ],
      "payable": false,
      "stateMutability": "view",
      "type": "function"
    },
    {
      "inputs": [],
      "payable": false,
      "stateMutability": "nonpayable",
      "type": "constructor"
    },
    {
      "anonymous": false,
      "inputs": [
        {
          "indexed": false,
          "name": "sender",
          "type": "address"
        },
        {
          "indexed": false,
          "name": "_type",
          "type": "uint8"
        }
      ],
      "name": "SignupEvent",
      "type": "event"
    },
    {
      "anonymous": false,
      "inputs": [
        {
          "indexed": false,
          "name": "sender",
          "type": "address"
        },
        {
          "indexed": false,
          "name": "assetid",
          "type": "uint256"
        }
      ],
      "name": "AddAssetEvent",
      "type": "event"
    },
    {
      "anonymous": false,
      "inputs": [
        {
          "indexed": false,
          "name": "sender",
          "type": "address"
        },
        {
          "indexed": false,
          "name": "calibrationsid",
          "type": "uint256"
        }
      ],
      "name": "AddCalibrationsEvent",
      "type": "event"
    },
    {
      "constant": false,
      "inputs": [
        {
          "name": "_type",
          "type": "uint8"
        }
      ],
      "name": "signup",
      "outputs": [],
      "payable": false,
      "stateMutability": "nonpayable",
      "type": "function"
    },
    {
      "constant": false,
      "inputs": [
        {
          "name": "item",
          "type": "string"
        },
        {
          "name": "serialNumber",
          "type": "string"
        },
        {
          "name": "dateCommissioned",
          "type": "string"
        },
        {
          "name": "administrator",
          "type": "address"
        }
      ],
      "name": "addAsset",
      "outputs": [],
      "payable": false,
      "stateMutability": "nonpayable",
      "type": "function"
    },
    {
      "constant": false,
      "inputs": [
        {
          "name": "_assetIndex",
          "type": "uint256"
        },
        {
          "name": "_date",
          "type": "string"
        },
        {
          "name": "_calibrationType1",
          "type": "string"
        },
        {
          "name": "_calibrationType2",
          "type": "string"
        },
        {
          "name": "_calibrationType3",
          "type": "string"
        }
      ],
      "name": "addCalibration",
      "outputs": [],
      "payable": false,
      "stateMutability": "nonpayable",
      "type": "function"
    }
  ],
  "bytecode": "0x608060405234801561001057600080fd5b50336000806101000a81548173ffffffffffffffffffffffffffffffffffffffff021916908373ffffffffffffffffffffffffffffffffffffffff160217905550611a03806100606000396000f3fe608060405260043610610093576000357c01000000000000000000000000000000000000000000000000000000009004806309e69ede1461009857806369f3569b1461013e5780636b859bb4146103545780638da5cb5b146105eb578063cf10134f14610642578063cf35bdd01461087b578063e07b098a14610a74578063fd061fb414610a9f578063fd0a46e214610add575b600080fd5b3480156100a457600080fd5b506100e7600480360360208110156100bb57600080fd5b81019080803573ffffffffffffffffffffffffffffffffffffffff169060200190929190505050610b08565b604051808373ffffffffffffffffffffffffffffffffffffffff1673ffffffffffffffffffffffffffffffffffffffff16815260200182600281111561012957fe5b60ff1681526020019250505060405180910390f35b34801561014a57600080fd5b506103526004803603608081101561016157600080fd5b810190808035906020019064010000000081111561017e57600080fd5b82018360208201111561019057600080fd5b803590602001918460018302840111640100000000831117156101b257600080fd5b91908080601f016020809104026020016040519081016040528093929190818152602001838380828437600081840152601f19601f8201169050808301925050505050505091929192908035906020019064010000000081111561021557600080fd5b82018360208201111561022757600080fd5b8035906020019184600183028401116401000000008311171561024957600080fd5b91908080601f016020809104026020016040519081016040528093929190818152602001838380828437600081840152601f19601f820116905080830192505050505050509192919290803590602001906401000000008111156102ac57600080fd5b8201836020820111156102be57600080fd5b803590602001918460018302840111640100000000831117156102e057600080fd5b91908080601f016020809104026020016040519081016040528093929190818152602001838380828437600081840152601f19601f820116905080830192505050505050509192919290803573ffffffffffffffffffffffffffffffffffffffff169060200190929190505050610b59565b005b34801561036057600080fd5b506105e9600480360360a081101561037757600080fd5b81019080803590602001909291908035906020019064010000000081111561039e57600080fd5b8201836020820111156103b057600080fd5b803590602001918460018302840111640100000000831117156103d257600080fd5b91908080601f016020809104026020016040519081016040528093929190818152602001838380828437600081840152601f19601f8201169050808301925050505050505091929192908035906020019064010000000081111561043557600080fd5b82018360208201111561044757600080fd5b8035906020019184600183028401116401000000008311171561046957600080fd5b91908080601f016020809104026020016040519081016040528093929190818152602001838380828437600081840152601f19601f820116905080830192505050505050509192919290803590602001906401000000008111156104cc57600080fd5b8201836020820111156104de57600080fd5b8035906020019184600183028401116401000000008311171561050057600080fd5b91908080601f016020809104026020016040519081016040528093929190818152602001838380828437600081840152601f19601f8201169050808301925050505050505091929192908035906020019064010000000081111561056357600080fd5b82018360208201111561057557600080fd5b8035906020019184600183028401116401000000008311171561059757600080fd5b91908080601f016020809104026020016040519081016040528093929190818152602001838380828437600081840152601f19601f820116905080830192505050505050509192919290505050610efb565b005b3480156105f757600080fd5b50610600611191565b604051808273ffffffffffffffffffffffffffffffffffffffff1673ffffffffffffffffffffffffffffffffffffffff16815260200191505060405180910390f35b34801561064e57600080fd5b5061067b6004803603602081101561066557600080fd5b81019080803590602001909291905050506111b6565b60405180888152602001878152602001806020018060200180602001806020018673ffffffffffffffffffffffffffffffffffffffff1673ffffffffffffffffffffffffffffffffffffffff16815260200185810385528a818151815260200191508051906020019080838360005b838110156107055780820151818401526020810190506106ea565b50505050905090810190601f1680156107325780820380516001836020036101000a031916815260200191505b50858103845289818151815260200191508051906020019080838360005b8381101561076b578082015181840152602081019050610750565b50505050905090810190601f1680156107985780820380516001836020036101000a031916815260200191505b50858103835288818151815260200191508051906020019080838360005b838110156107d15780820151818401526020810190506107b6565b50505050905090810190601f1680156107fe5780820380516001836020036101000a031916815260200191505b50858103825287818151815260200191508051906020019080838360005b8381101561083757808201518184015260208101905061081c565b50505050905090810190601f1680156108645780820380516001836020036101000a031916815260200191505b509b50505050505050505050505060405180910390f35b34801561088757600080fd5b506108b46004803603602081101561089e57600080fd5b8101908080359060200190929190505050611478565b604051808781526020018673ffffffffffffffffffffffffffffffffffffffff1673ffffffffffffffffffffffffffffffffffffffff1681526020018060200180602001806020018573ffffffffffffffffffffffffffffffffffffffff1673ffffffffffffffffffffffffffffffffffffffff168152602001848103845288818151815260200191508051906020019080838360005b8381101561096657808201518184015260208101905061094b565b50505050905090810190601f1680156109935780820380516001836020036101000a031916815260200191505b50848103835287818151815260200191508051906020019080838360005b838110156109cc5780820151818401526020810190506109b1565b50505050905090810190601f1680156109f95780820380516001836020036101000a031916815260200191505b50848103825286818151815260200191508051906020019080838360005b83811015610a32578082015181840152602081019050610a17565b50505050905090810190601f168015610a5f5780820380516001836020036101000a031916815260200191505b50995050505050505050505060405180910390f35b348015610a8057600080fd5b50610a896116bc565b6040518082815260200191505060405180910390f35b348015610aab57600080fd5b50610adb60048036036020811015610ac257600080fd5b81019080803560ff1690602001909291905050506116c2565b005b348015610ae957600080fd5b50610af261192c565b6040518082815260200191505060405180910390f35b60036020528060005260406000206000915090508060000160009054906101000a900473ffffffffffffffffffffffffffffffffffffffff16908060000160149054906101000a900460ff16905082565b60006002811115610b6657fe5b600360003373ffffffffffffffffffffffffffffffffffffffff1673ffffffffffffffffffffffffffffffffffffffff16815260200190815260200160002060000160149054906101000a900460ff166002811115610bc157fe5b141515610c36576040517f08c379a00000000000000000000000000000000000000000000000000000000081526004018080602001828103825260178152602001807f53656e646572206973206e6f742061206465616c65722e00000000000000000081525060200191505060405180910390fd5b60006002811115610c4357fe5b600360003373ffffffffffffffffffffffffffffffffffffffff1673ffffffffffffffffffffffffffffffffffffffff16815260200190815260200160002060000160149054906101000a900460ff166002811115610c9e57fe5b141515610d13576040517f08c379a00000000000000000000000000000000000000000000000000000000081526004018080602001828103825260178152602001807f53656e646572206973206e6f742061206465616c65722e00000000000000000081525060200191505060405180910390fd5b60016000815480929190600101919050555060c06040519081016040528060015481526020013373ffffffffffffffffffffffffffffffffffffffff1681526020018581526020018481526020018381526020018273ffffffffffffffffffffffffffffffffffffffff168152506004600060015481526020019081526020016000206000820151816000015560208201518160010160006101000a81548173ffffffffffffffffffffffffffffffffffffffff021916908373ffffffffffffffffffffffffffffffffffffffff1602179055506040820151816002019080519060200190610e03929190611932565b506060820151816003019080519060200190610e20929190611932565b506080820151816004019080519060200190610e3d929190611932565b5060a08201518160050160006101000a81548173ffffffffffffffffffffffffffffffffffffffff021916908373ffffffffffffffffffffffffffffffffffffffff1602179055509050507faff77563897b6f6292105ed3ce5943bd6221ed93712f065eefaa7ab51a97743333600254604051808373ffffffffffffffffffffffffffffffffffffffff1673ffffffffffffffffffffffffffffffffffffffff1681526020018281526020019250505060405180910390a150505050565b60016002811115610f0857fe5b600360003373ffffffffffffffffffffffffffffffffffffffff1673ffffffffffffffffffffffffffffffffffffffff16815260200190815260200160002060000160149054906101000a900460ff166002811115610f6357fe5b141515610fd8576040517f08c379a000000000000000000000000000000000000000000000000000000000815260040180806020018281038252601f8152602001807f53656e646572206973206e6f74206120736572766963652063656e7465722e0081525060200191505060405180910390fd5b60026000815480929190600101919050555060e06040519081016040528060025481526020018681526020018581526020018481526020018381526020018281526020013373ffffffffffffffffffffffffffffffffffffffff168152506005600060025481526020019081526020016000206000820151816000015560208201518160010155604082015181600201908051906020019061107b929190611932565b506060820151816003019080519060200190611098929190611932565b5060808201518160040190805190602001906110b5929190611932565b5060a08201518160050190805190602001906110d2929190611932565b5060c08201518160060160006101000a81548173ffffffffffffffffffffffffffffffffffffffff021916908373ffffffffffffffffffffffffffffffffffffffff1602179055509050507f28e8afde4df8f8c71003c736fd6c7c20eb4370e98aafead4223777cbf88c013b33600254604051808373ffffffffffffffffffffffffffffffffffffffff1673ffffffffffffffffffffffffffffffffffffffff1681526020018281526020019250505060405180910390a15050505050565b6000809054906101000a900473ffffffffffffffffffffffffffffffffffffffff1681565b6005602052806000526040600020600091509050806000015490806001015490806002018054600181600116156101000203166002900480601f01602080910402602001604051908101604052809291908181526020018280546001816001161561010002031660029004801561126e5780601f106112435761010080835404028352916020019161126e565b820191906000526020600020905b81548152906001019060200180831161125157829003601f168201915b505050505090806003018054600181600116156101000203166002900480601f01602080910402602001604051908101604052809291908181526020018280546001816001161561010002031660029004801561130c5780601f106112e15761010080835404028352916020019161130c565b820191906000526020600020905b8154815290600101906020018083116112ef57829003601f168201915b505050505090806004018054600181600116156101000203166002900480601f0160208091040260200160405190810160405280929190818152602001828054600181600116156101000203166002900480156113aa5780601f1061137f576101008083540402835291602001916113aa565b820191906000526020600020905b81548152906001019060200180831161138d57829003601f168201915b505050505090806005018054600181600116156101000203166002900480601f0160208091040260200160405190810160405280929190818152602001828054600181600116156101000203166002900480156114485780601f1061141d57610100808354040283529160200191611448565b820191906000526020600020905b81548152906001019060200180831161142b57829003601f168201915b5050505050908060060160009054906101000a900473ffffffffffffffffffffffffffffffffffffffff16905087565b60046020528060005260406000206000915090508060000154908060010160009054906101000a900473ffffffffffffffffffffffffffffffffffffffff1690806002018054600181600116156101000203166002900480601f0160208091040260200160405190810160405280929190818152602001828054600181600116156101000203166002900480156115505780601f1061152557610100808354040283529160200191611550565b820191906000526020600020905b81548152906001019060200180831161153357829003601f168201915b505050505090806003018054600181600116156101000203166002900480601f0160208091040260200160405190810160405280929190818152602001828054600181600116156101000203166002900480156115ee5780601f106115c3576101008083540402835291602001916115ee565b820191906000526020600020905b8154815290600101906020018083116115d157829003601f168201915b505050505090806004018054600181600116156101000203166002900480601f01602080910402602001604051908101604052809291908181526020018280546001816001161561010002031660029004801561168c5780601f106116615761010080835404028352916020019161168c565b820191906000526020600020905b81548152906001019060200180831161166f57829003601f168201915b5050505050908060050160009054906101000a900473ffffffffffffffffffffffffffffffffffffffff16905086565b60015481565b600360003373ffffffffffffffffffffffffffffffffffffffff1673ffffffffffffffffffffffffffffffffffffffff16815260200190815260200160002060000160009054906101000a900473ffffffffffffffffffffffffffffffffffffffff1673ffffffffffffffffffffffffffffffffffffffff163373ffffffffffffffffffffffffffffffffffffffff16141515156117c8576040517f08c379a00000000000000000000000000000000000000000000000000000000081526004018080602001828103825260188152602001807f53656e646572206973206e6f7420796574207369676e7570000000000000000081525060200191505060405180910390fd5b60408051908101604052803373ffffffffffffffffffffffffffffffffffffffff1681526020018260028111156117fb57fe5b815250600360003373ffffffffffffffffffffffffffffffffffffffff1673ffffffffffffffffffffffffffffffffffffffff16815260200190815260200160002060008201518160000160006101000a81548173ffffffffffffffffffffffffffffffffffffffff021916908373ffffffffffffffffffffffffffffffffffffffff16021790555060208201518160000160146101000a81548160ff021916908360028111156118a857fe5b02179055509050507fd93e0959190f2f576553317f9c17f456c15bfbcfd4c7f0c1f14cef985b453ebb3382604051808373ffffffffffffffffffffffffffffffffffffffff1673ffffffffffffffffffffffffffffffffffffffff16815260200182600281111561191557fe5b60ff1681526020019250505060405180910390a150565b60025481565b828054600181600116156101000203166002900490600052602060002090601f016020900481019282601f1061197357805160ff19168380011785556119a1565b828001600101855582156119a1579182015b828111156119a0578251825591602001919060010190611985565b5b5090506119ae91906119b2565b5090565b6119d491905b808211156119d05760008160009055506001016119b8565b5090565b9056fea165627a7a7230582069edea19d96a9d159e5467888bda9dc680ea57712f8c668a828905e8479411e40029",
  "source": "pragma solidity ^0.5.0;\n\ncontract AssetsManagement {\n\n  enum AccountType { DEALER, SERVICE_CENTER, DRIVER }\n\n  struct ParticipantDetail {\n    address client;\n    AccountType accountType;\n  }\n\n  struct Asset {\n    uint256 index;\n    address creator;\n    string Item;\n    string SerialNumber;\n    string DateCommissioned;\n    address Administrator;\n  }\n\n  struct Calibration {\n    uint256 index;\n    uint256 assetIndex;\n    string Date;\n    string CalibrationType1;\n    string CalibrationType2;\n    string CalibrationType3;\n    address CalibratedBy;\n  }\n\n  address public owner;\n  uint256 public assetIndex;\n  uint256 public calibrationsIndex;\n\n  mapping(address => ParticipantDetail) public participants;\n  mapping(uint256 => Asset) public assets;\n  mapping(uint256 => Calibration) public calibrations;\n\n  // EVENTS\n\n  event SignupEvent(address sender, AccountType _type);\n  event AddAssetEvent(address sender, uint256 assetid);\n  event AddCalibrationsEvent(address sender, uint calibrationsid);\n\n  // EVENTS ENDS\n\n  modifier onlyOwner() {\n    require(msg.sender == owner, \"Sender is not owner.\");\n    _;\n  }\n\n  constructor() public {\n    owner = msg.sender;\n  }\n\n  function signup(\n    AccountType _type\n  ) public {\n    require(msg.sender != participants[msg.sender].client, \"Sender is not yet signup\");\n\n    participants[msg.sender] = ParticipantDetail(msg.sender, _type);\n\n    emit SignupEvent(msg.sender, _type);\n  }\n\n  function addAsset (\n    string memory item,\n    string memory serialNumber,\n    string memory dateCommissioned,\n    address administrator\n  ) public {\n\n    require(\n      participants[msg.sender].accountType == AccountType.DEALER,\n      \"Sender is not a dealer.\"\n    );\n\n    require(\n      participants[msg.sender].accountType == AccountType.DEALER,\n      \"Sender is not a dealer.\"\n    );\n\n    assetIndex++;\n    assets[assetIndex] = Asset(\n      assetIndex,\n      msg.sender,\n      item,\n      serialNumber,\n      dateCommissioned,\n      administrator\n    );\n\n    emit AddAssetEvent(msg.sender, calibrationsIndex);\n  }\n\n  function addCalibration (\n    uint256 _assetIndex,\n    string memory _date,\n    string memory _calibrationType1,\n    string memory _calibrationType2,\n    string memory _calibrationType3\n  ) public {\n\n    require(\n      participants[msg.sender].accountType == AccountType.SERVICE_CENTER,\n      \"Sender is not a service center.\"\n    );\n\n    calibrationsIndex++;\n    calibrations[calibrationsIndex] = Calibration(\n      calibrationsIndex,\n      _assetIndex,\n      _date,\n      _calibrationType1,\n      _calibrationType2,\n      _calibrationType3,\n      msg.sender\n    );\n\n    emit AddCalibrationsEvent(msg.sender, calibrationsIndex);\n  }\n}\n",
  "sourcePath": "C:/xampp/htdocs/BLOCKCHAIN/Asset-Management/contracts/AssetsManagement.sol",
  "compiler": {
    "name": "solc",
    "version": "0.5.1+commit.c8a2cb62.Emscripten.clang"
  },
  "schemaVersion": "3.0.16",
  "updatedAt": "2019-10-23T12:12:28.019Z",
  "devdoc": {
    "methods": {}
  },
  "userdoc": {
    "methods": {}
  }
}