{
  "contractName": "AssetsManagement",
  "abi": [
    {
      "constant": true,
      "inputs": [
        {
          "name": "",
          "type": "address"
        }
      ],
      "name": "participants",
      "outputs": [
        {
          "name": "client",
          "type": "address"
        },
        {
          "name": "accountType",
          "type": "uint8"
        }
      ],
      "payable": false,
      "stateMutability": "view",
      "type": "function"
    },
    {
      "constant": true,
      "inputs": [
        {
          "name": "",
          "type": "address"
        },
        {
          "name": "",
          "type": "uint256"
        }
      ],
      "name": "calibrationsByCreator",
      "outputs": [
        {
          "name": "",
          "type": "uint256"
        }
      ],
      "payable": false,
      "stateMutability": "view",
      "type": "function"
    },
    {
      "constant": true,
      "inputs": [
        {
          "name": "",
          "type": "uint256"
        },
        {
          "name": "",
          "type": "uint256"
        }
      ],
      "name": "assetsByState",
      "outputs": [
        {
          "name": "",
          "type": "uint256"
        }
      ],
      "payable": false,
      "stateMutability": "view",
      "type": "function"
    },
    {
      "constant": true,
      "inputs": [
        {
          "name": "",
          "type": "uint256"
        },
        {
          "name": "",
          "type": "uint256"
        }
      ],
      "name": "calibrationsByAssets",
      "outputs": [
        {
          "name": "",
          "type": "uint256"
        }
      ],
      "payable": false,
      "stateMutability": "view",
      "type": "function"
    },
    {
      "constant": true,
      "inputs": [
        {
          "name": "",
          "type": "address"
        },
        {
          "name": "",
          "type": "uint256"
        }
      ],
      "name": "assetsByAdministrator",
      "outputs": [
        {
          "name": "",
          "type": "uint256"
        }
      ],
      "payable": false,
      "stateMutability": "view",
      "type": "function"
    },
    {
      "constant": true,
      "inputs": [
        {
          "name": "",
          "type": "uint256"
        }
      ],
      "name": "calibrations",
      "outputs": [
        {
          "name": "index",
          "type": "uint256"
        },
        {
          "name": "assetIndex",
          "type": "uint256"
        },
        {
          "name": "Date",
          "type": "string"
        },
        {
          "name": "SerialNumber",
          "type": "string"
        },
        {
          "name": "CalibrationType1",
          "type": "string"
        },
        {
          "name": "CalibrationType2",
          "type": "string"
        },
        {
          "name": "CalibrationType3",
          "type": "string"
        },
        {
          "name": "CalibratedBy",
          "type": "address"
        }
      ],
      "payable": false,
      "stateMutability": "view",
      "type": "function"
    },
    {
      "constant": true,
      "inputs": [
        {
          "name": "",
          "type": "uint256"
        }
      ],
      "name": "assets",
      "outputs": [
        {
          "name": "index",
          "type": "uint256"
        },
        {
          "name": "creator",
          "type": "address"
        },
        {
          "name": "Item",
          "type": "string"
        },
        {
          "name": "SerialNumber",
          "type": "string"
        },
        {
          "name": "DateCommissioned",
          "type": "string"
        },
        {
          "name": "Administrator",
          "type": "address"
        },
        {
          "name": "state",
          "type": "uint8"
        }
      ],
      "payable": false,
      "stateMutability": "view",
      "type": "function"
    },
    {
      "constant": true,
      "inputs": [
        {
          "name": "",
          "type": "uint256"
        }
      ],
      "name": "allDrivers",
      "outputs": [
        {
          "name": "",
          "type": "address"
        }
      ],
      "payable": false,
      "stateMutability": "view",
      "type": "function"
    },
    {
      "constant": true,
      "inputs": [],
      "name": "assetIndex",
      "outputs": [
        {
          "name": "",
          "type": "uint256"
        }
      ],
      "payable": false,
      "stateMutability": "view",
      "type": "function"
    },
    {
      "constant": true,
      "inputs": [
        {
          "name": "",
          "type": "address"
        },
        {
          "name": "",
          "type": "uint256"
        }
      ],
      "name": "assetsByCreator",
      "outputs": [
        {
          "name": "",
          "type": "uint256"
        }
      ],
      "payable": false,
      "stateMutability": "view",
      "type": "function"
    },
    {
      "constant": true,
      "inputs": [],
      "name": "calibrationsIndex",
      "outputs": [
        {
          "name": "",
          "type": "uint256"
        }
      ],
      "payable": false,
      "stateMutability": "view",
      "type": "function"
    },
    {
      "inputs": [],
      "payable": false,
      "stateMutability": "nonpayable",
      "type": "constructor"
    },
    {
      "anonymous": false,
      "inputs": [
        {
          "indexed": true,
          "name": "sender",
          "type": "address"
        },
        {
          "indexed": false,
          "name": "_type",
          "type": "uint8"
        }
      ],
      "name": "SignupEvent",
      "type": "event"
    },
    {
      "anonymous": false,
      "inputs": [
        {
          "indexed": true,
          "name": "sender",
          "type": "address"
        },
        {
          "indexed": false,
          "name": "assetid",
          "type": "uint256"
        }
      ],
      "name": "AddAssetEvent",
      "type": "event"
    },
    {
      "anonymous": false,
      "inputs": [
        {
          "indexed": true,
          "name": "sender",
          "type": "address"
        },
        {
          "indexed": false,
          "name": "calibrationsid",
          "type": "uint256"
        }
      ],
      "name": "AddCalibrationsEvent",
      "type": "event"
    },
    {
      "anonymous": false,
      "inputs": [
        {
          "indexed": true,
          "name": "sender",
          "type": "address"
        },
        {
          "indexed": false,
          "name": "assetid",
          "type": "uint256"
        }
      ],
      "name": "UpdateAssetForCallibration",
      "type": "event"
    },
    {
      "constant": false,
      "inputs": [
        {
          "name": "_type",
          "type": "uint8"
        }
      ],
      "name": "signup",
      "outputs": [],
      "payable": false,
      "stateMutability": "nonpayable",
      "type": "function"
    },
    {
      "constant": true,
      "inputs": [],
      "name": "getAllDrivers",
      "outputs": [
        {
          "name": "",
          "type": "address[]"
        }
      ],
      "payable": false,
      "stateMutability": "view",
      "type": "function"
    },
    {
      "constant": false,
      "inputs": [
        {
          "name": "item",
          "type": "string"
        },
        {
          "name": "serialNumber",
          "type": "string"
        },
        {
          "name": "dateCommissioned",
          "type": "string"
        },
        {
          "name": "administrator",
          "type": "address"
        }
      ],
      "name": "addAsset",
      "outputs": [],
      "payable": false,
      "stateMutability": "nonpayable",
      "type": "function"
    },
    {
      "constant": true,
      "inputs": [
        {
          "name": "_administrator",
          "type": "address"
        }
      ],
      "name": "getAssetByAdministrator",
      "outputs": [
        {
          "name": "",
          "type": "uint256[]"
        }
      ],
      "payable": false,
      "stateMutability": "view",
      "type": "function"
    },
    {
      "constant": true,
      "inputs": [
        {
          "name": "_creator",
          "type": "address"
        }
      ],
      "name": "getAssetByCreator",
      "outputs": [
        {
          "name": "",
          "type": "uint256[]"
        }
      ],
      "payable": false,
      "stateMutability": "view",
      "type": "function"
    },
    {
      "constant": true,
      "inputs": [
        {
          "name": "_status",
          "type": "uint256"
        }
      ],
      "name": "getAssetByState",
      "outputs": [
        {
          "name": "",
          "type": "uint256[]"
        }
      ],
      "payable": false,
      "stateMutability": "view",
      "type": "function"
    },
    {
      "constant": false,
      "inputs": [
        {
          "name": "_assetIndex",
          "type": "uint256"
        },
        {
          "name": "_date",
          "type": "string"
        },
        {
          "name": "_serialnumber",
          "type": "string"
        },
        {
          "name": "_calibrationType1",
          "type": "string"
        },
        {
          "name": "_calibrationType2",
          "type": "string"
        },
        {
          "name": "_calibrationType3",
          "type": "string"
        }
      ],
      "name": "addCalibration",
      "outputs": [],
      "payable": false,
      "stateMutability": "nonpayable",
      "type": "function"
    },
    {
      "constant": true,
      "inputs": [
        {
          "name": "_creator",
          "type": "address"
        }
      ],
      "name": "getCalibrationsByCreator",
      "outputs": [
        {
          "name": "",
          "type": "uint256[]"
        }
      ],
      "payable": false,
      "stateMutability": "view",
      "type": "function"
    },
    {
      "constant": true,
      "inputs": [
        {
          "name": "_index",
          "type": "uint256"
        }
      ],
      "name": "getCalibrationsByAssets",
      "outputs": [
        {
          "name": "",
          "type": "uint256[]"
        }
      ],
      "payable": false,
      "stateMutability": "view",
      "type": "function"
    },
    {
      "constant": false,
      "inputs": [
        {
          "name": "_index",
          "type": "uint256"
        }
      ],
      "name": "updateAssetForCalibration",
      "outputs": [],
      "payable": false,
      "stateMutability": "nonpayable",
      "type": "function"
    }
  ],
  "bytecode": "0x608060405234801561001057600080fd5b50612eab806100206000396000f3fe608060405260043610610117576000357c01000000000000000000000000000000000000000000000000000000009004806309e69ede1461011c578063100c9c31146101c25780631f21e7af14610231578063259b7cd01461028a57806369f3569b146102e35780636cbac4a8146104f95780638982c1de146105655780638c259a9b146108935780639069f3531461093957806397593ce5146109745780639a33d102146109e3578063cc01959e14610a73578063cf10134f14610b19578063cf35bdd014610dbe578063d844b1d214610fcc578063e07b098a14611047578063e64707e214611072578063e99ef1e5146110e1578063f8d20d4114611187578063fd061fb414611217578063fd0a46e214611255575b600080fd5b34801561012857600080fd5b5061016b6004803603602081101561013f57600080fd5b81019080803573ffffffffffffffffffffffffffffffffffffffff169060200190929190505050611280565b604051808373ffffffffffffffffffffffffffffffffffffffff1673ffffffffffffffffffffffffffffffffffffffff1681526020018260028111156101ad57fe5b60ff1681526020019250505060405180910390f35b3480156101ce57600080fd5b5061021b600480360360408110156101e557600080fd5b81019080803573ffffffffffffffffffffffffffffffffffffffff169060200190929190803590602001909291905050506112d1565b6040518082815260200191505060405180910390f35b34801561023d57600080fd5b506102746004803603604081101561025457600080fd5b810190808035906020019092919080359060200190929190505050611301565b6040518082815260200191505060405180910390f35b34801561029657600080fd5b506102cd600480360360408110156102ad57600080fd5b810190808035906020019092919080359060200190929190505050611331565b6040518082815260200191505060405180910390f35b3480156102ef57600080fd5b506104f76004803603608081101561030657600080fd5b810190808035906020019064010000000081111561032357600080fd5b82018360208201111561033557600080fd5b8035906020019184600183028401116401000000008311171561035757600080fd5b91908080601f016020809104026020016040519081016040528093929190818152602001838380828437600081840152601f19601f820116905080830192505050505050509192919290803590602001906401000000008111156103ba57600080fd5b8201836020820111156103cc57600080fd5b803590602001918460018302840111640100000000831117156103ee57600080fd5b91908080601f016020809104026020016040519081016040528093929190818152602001838380828437600081840152601f19601f8201169050808301925050505050505091929192908035906020019064010000000081111561045157600080fd5b82018360208201111561046357600080fd5b8035906020019184600183028401116401000000008311171561048557600080fd5b91908080601f016020809104026020016040519081016040528093929190818152602001838380828437600081840152601f19601f820116905080830192505050505050509192919290803573ffffffffffffffffffffffffffffffffffffffff169060200190929190505050611361565b005b34801561050557600080fd5b5061050e611762565b6040518080602001828103825283818151815260200191508051906020019060200280838360005b83811015610551578082015181840152602081019050610536565b505050509050019250505060405180910390f35b34801561057157600080fd5b50610891600480360360c081101561058857600080fd5b8101908080359060200190929190803590602001906401000000008111156105af57600080fd5b8201836020820111156105c157600080fd5b803590602001918460018302840111640100000000831117156105e357600080fd5b91908080601f016020809104026020016040519081016040528093929190818152602001838380828437600081840152601f19601f8201169050808301925050505050505091929192908035906020019064010000000081111561064657600080fd5b82018360208201111561065857600080fd5b8035906020019184600183028401116401000000008311171561067a57600080fd5b91908080601f016020809104026020016040519081016040528093929190818152602001838380828437600081840152601f19601f820116905080830192505050505050509192919290803590602001906401000000008111156106dd57600080fd5b8201836020820111156106ef57600080fd5b8035906020019184600183028401116401000000008311171561071157600080fd5b91908080601f016020809104026020016040519081016040528093929190818152602001838380828437600081840152601f19601f8201169050808301925050505050505091929192908035906020019064010000000081111561077457600080fd5b82018360208201111561078657600080fd5b803590602001918460018302840111640100000000831117156107a857600080fd5b91908080601f016020809104026020016040519081016040528093929190818152602001838380828437600081840152601f19601f8201169050808301925050505050505091929192908035906020019064010000000081111561080b57600080fd5b82018360208201111561081d57600080fd5b8035906020019184600183028401116401000000008311171561083f57600080fd5b91908080601f016020809104026020016040519081016040528093929190818152602001838380828437600081840152601f19601f8201169050808301925050505050505091929192905050506117f0565b005b34801561089f57600080fd5b506108e2600480360360208110156108b657600080fd5b81019080803573ffffffffffffffffffffffffffffffffffffffff169060200190929190505050611e84565b6040518080602001828103825283818151815260200191508051906020019060200280838360005b8381101561092557808201518184015260208101905061090a565b505050509050019250505060405180910390f35b34801561094557600080fd5b506109726004803603602081101561095c57600080fd5b8101908080359060200190929190505050611f1b565b005b34801561098057600080fd5b506109cd6004803603604081101561099757600080fd5b81019080803573ffffffffffffffffffffffffffffffffffffffff169060200190929190803590602001909291905050506121fe565b6040518082815260200191505060405180910390f35b3480156109ef57600080fd5b50610a1c60048036036020811015610a0657600080fd5b810190808035906020019092919050505061222e565b6040518080602001828103825283818151815260200191508051906020019060200280838360005b83811015610a5f578082015181840152602081019050610a44565b505050509050019250505060405180910390f35b348015610a7f57600080fd5b50610ac260048036036020811015610a9657600080fd5b81019080803573ffffffffffffffffffffffffffffffffffffffff169060200190929190505050612299565b6040518080602001828103825283818151815260200191508051906020019060200280838360005b83811015610b05578082015181840152602081019050610aea565b505050509050019250505060405180910390f35b348015610b2557600080fd5b50610b5260048036036020811015610b3c57600080fd5b8101908080359060200190929190505050612330565b6040518089815260200188815260200180602001806020018060200180602001806020018773ffffffffffffffffffffffffffffffffffffffff1673ffffffffffffffffffffffffffffffffffffffff16815260200186810386528c818151815260200191508051906020019080838360005b83811015610be0578082015181840152602081019050610bc5565b50505050905090810190601f168015610c0d5780820380516001836020036101000a031916815260200191505b5086810385528b818151815260200191508051906020019080838360005b83811015610c46578082015181840152602081019050610c2b565b50505050905090810190601f168015610c735780820380516001836020036101000a031916815260200191505b5086810384528a818151815260200191508051906020019080838360005b83811015610cac578082015181840152602081019050610c91565b50505050905090810190601f168015610cd95780820380516001836020036101000a031916815260200191505b50868103835289818151815260200191508051906020019080838360005b83811015610d12578082015181840152602081019050610cf7565b50505050905090810190601f168015610d3f5780820380516001836020036101000a031916815260200191505b50868103825288818151815260200191508051906020019080838360005b83811015610d78578082015181840152602081019050610d5d565b50505050905090810190601f168015610da55780820380516001836020036101000a031916815260200191505b509d505050505050505050505050505060405180910390f35b348015610dca57600080fd5b50610df760048036036020811015610de157600080fd5b8101908080359060200190929190505050612690565b604051808881526020018773ffffffffffffffffffffffffffffffffffffffff1673ffffffffffffffffffffffffffffffffffffffff1681526020018060200180602001806020018673ffffffffffffffffffffffffffffffffffffffff1673ffffffffffffffffffffffffffffffffffffffff168152602001856001811115610e7d57fe5b60ff168152602001848103845289818151815260200191508051906020019080838360005b83811015610ebd578082015181840152602081019050610ea2565b50505050905090810190601f168015610eea5780820380516001836020036101000a031916815260200191505b50848103835288818151815260200191508051906020019080838360005b83811015610f23578082015181840152602081019050610f08565b50505050905090810190601f168015610f505780820380516001836020036101000a031916815260200191505b50848103825287818151815260200191508051906020019080838360005b83811015610f89578082015181840152602081019050610f6e565b50505050905090810190601f168015610fb65780820380516001836020036101000a031916815260200191505b509a505050505050505050505060405180910390f35b348015610fd857600080fd5b5061100560048036036020811015610fef57600080fd5b81019080803590602001909291905050506128e7565b604051808273ffffffffffffffffffffffffffffffffffffffff1673ffffffffffffffffffffffffffffffffffffffff16815260200191505060405180910390f35b34801561105357600080fd5b5061105c612925565b6040518082815260200191505060405180910390f35b34801561107e57600080fd5b506110cb6004803603604081101561109557600080fd5b81019080803573ffffffffffffffffffffffffffffffffffffffff1690602001909291908035906020019092919050505061292b565b6040518082815260200191505060405180910390f35b3480156110ed57600080fd5b506111306004803603602081101561110457600080fd5b81019080803573ffffffffffffffffffffffffffffffffffffffff16906020019092919050505061295b565b6040518080602001828103825283818151815260200191508051906020019060200280838360005b83811015611173578082015181840152602081019050611158565b505050509050019250505060405180910390f35b34801561119357600080fd5b506111c0600480360360208110156111aa57600080fd5b81019080803590602001909291905050506129f2565b6040518080602001828103825283818151815260200191508051906020019060200280838360005b838110156112035780820151818401526020810190506111e8565b505050509050019250505060405180910390f35b34801561122357600080fd5b506112536004803603602081101561123a57600080fd5b81019080803560ff169060200190929190505050612ad6565b005b34801561126157600080fd5b5061126a612da8565b6040518082815260200191505060405180910390f35b60026020528060005260406000206000915090508060000160009054906101000a900473ffffffffffffffffffffffffffffffffffffffff16908060000160149054906101000a900460ff16905082565b6008602052816000526040600020818154811015156112ec57fe5b90600052602060002001600091509150505481565b60066020528160005260406000208181548110151561131c57fe5b90600052602060002001600091509150505481565b60096020528160005260406000208181548110151561134c57fe5b90600052602060002001600091509150505481565b6000600281111561136e57fe5b600260003373ffffffffffffffffffffffffffffffffffffffff1673ffffffffffffffffffffffffffffffffffffffff16815260200190815260200160002060000160149054906101000a900460ff1660028111156113c957fe5b14151561143e576040517f08c379a00000000000000000000000000000000000000000000000000000000081526004018080602001828103825260178152602001807f53656e646572206973206e6f742061206465616c65722e00000000000000000081525060200191505060405180910390fd5b600080815480929190600101919050555060e06040519081016040528060005481526020013373ffffffffffffffffffffffffffffffffffffffff1681526020018581526020018481526020018381526020018273ffffffffffffffffffffffffffffffffffffffff168152602001600060018111156114ba57fe5b81525060036000805481526020019081526020016000206000820151816000015560208201518160010160006101000a81548173ffffffffffffffffffffffffffffffffffffffff021916908373ffffffffffffffffffffffffffffffffffffffff160217905550604082015181600201908051906020019061153e929190612dae565b50606082015181600301908051906020019061155b929190612dae565b506080820151816004019080519060200190611578929190612dae565b5060a08201518160050160006101000a81548173ffffffffffffffffffffffffffffffffffffffff021916908373ffffffffffffffffffffffffffffffffffffffff16021790555060c08201518160050160146101000a81548160ff021916908360018111156115e457fe5b0217905550905050600460003373ffffffffffffffffffffffffffffffffffffffff1673ffffffffffffffffffffffffffffffffffffffff1681526020019081526020016000206000549080600181540180825580915050906001820390600052602060002001600090919290919091505550600560008273ffffffffffffffffffffffffffffffffffffffff1673ffffffffffffffffffffffffffffffffffffffff1681526020019081526020016000206000549080600181540180825580915050906001820390600052602060002001600090919290919091505550600660008060018111156116d257fe5b815260200190815260200160002060005490806001815401808255809150509060018203906000526020600020016000909192909190915055503373ffffffffffffffffffffffffffffffffffffffff167faff77563897b6f6292105ed3ce5943bd6221ed93712f065eefaa7ab51a9774336001546040518082815260200191505060405180910390a250505050565b6060600a8054806020026020016040519081016040528092919081815260200182805480156117e657602002820191906000526020600020905b8160009054906101000a900473ffffffffffffffffffffffffffffffffffffffff1673ffffffffffffffffffffffffffffffffffffffff168152602001906001019080831161179c575b5050505050905090565b600160028111156117fd57fe5b600260003373ffffffffffffffffffffffffffffffffffffffff1673ffffffffffffffffffffffffffffffffffffffff16815260200190815260200160002060000160149054906101000a900460ff16600281111561185857fe5b1415156118cd576040517f08c379a000000000000000000000000000000000000000000000000000000000815260040180806020018281038252601f8152602001807f53656e646572206973206e6f74206120736572766963652063656e7465722e0081525060200191505060405180910390fd5b60008614151515611946576040517f08c379a000000000000000000000000000000000000000000000000000000000815260040180806020018281038252601f8152602001807f496e6465782076616c75652073686f756c64206265206e6f6e2d7a65726f2e0081525060200191505060405180910390fd5b6001600081548092919060010191905055506101006040519081016040528060015481526020018781526020018681526020018581526020018481526020018381526020018281526020013373ffffffffffffffffffffffffffffffffffffffff16815250600760006001548152602001908152602001600020600082015181600001556020820151816001015560408201518160020190805190602001906119f0929190612dae565b506060820151816003019080519060200190611a0d929190612dae565b506080820151816004019080519060200190611a2a929190612dae565b5060a0820151816005019080519060200190611a47929190612dae565b5060c0820151816006019080519060200190611a64929190612dae565b5060e08201518160070160006101000a81548173ffffffffffffffffffffffffffffffffffffffff021916908373ffffffffffffffffffffffffffffffffffffffff160217905550905050600860003373ffffffffffffffffffffffffffffffffffffffff1673ffffffffffffffffffffffffffffffffffffffff168152602001908152602001600020600154908060018154018082558091505090600182039060005260206000200160009091929091909150555060096000878152602001908152602001600020600154908060018154018082558091505090600182039060005260206000200160009091929091909150555060016003600088815260200190815260200160002060050160146101000a81548160ff02191690836001811115611b8c57fe5b0217905550600080905060008090505b60066000600180811115611bac57fe5b815260200190815260200160002080549050811015611c14578760066000600180811115611bd657fe5b815260200190815260200160002082815481101515611bf157fe5b90600052602060002001541415611c0757600191505b8080600101915050611b9c565b50600015158115151415611c6b5760066000600180811115611c3257fe5b81526020019081526020016000208790806001815401808255809150509060018203906000526020600020016000909192909190915055505b60008090505b60066000806001811115611c8157fe5b815260200190815260200160002080549050811015611e2a578760066000806001811115611cab57fe5b815260200190815260200160002082815481101515611cc657fe5b90600052602060002001541415611e1d5760008190505b600160066000806001811115611cef57fe5b81526020019081526020016000208054905003811015611d885760066000806001811115611d1957fe5b815260200190815260200160002060018201815481101515611d3757fe5b906000526020600020015460066000806001811115611d5257fe5b815260200190815260200160002082815481101515611d6d57fe5b90600052602060002001819055508080600101915050611cdd565b5060066000806001811115611d9957fe5b8152602001908152602001600020600160066000806001811115611db957fe5b81526020019081526020016000208054905003815481101515611dd857fe5b906000526020600020016000905560066000806001811115611df657fe5b8152602001908152602001600020805480919060019003611e179190612e2e565b50611e2a565b8080600101915050611c71565b503373ffffffffffffffffffffffffffffffffffffffff167f28e8afde4df8f8c71003c736fd6c7c20eb4370e98aafead4223777cbf88c013b6001546040518082815260200191505060405180910390a250505050505050565b6060600460008373ffffffffffffffffffffffffffffffffffffffff1673ffffffffffffffffffffffffffffffffffffffff168152602001908152602001600020805480602002602001604051908101604052809291908181526020018280548015611f0f57602002820191906000526020600020905b815481526020019060010190808311611efb575b50505050509050919050565b600280811115611f2757fe5b600260003373ffffffffffffffffffffffffffffffffffffffff1673ffffffffffffffffffffffffffffffffffffffff16815260200190815260200160002060000160149054906101000a900460ff166002811115611f8257fe5b141515611ff7576040517f08c379a00000000000000000000000000000000000000000000000000000000081526004018080602001828103825260178152602001807f53656e646572206973206e6f742061206472697665722e00000000000000000081525060200191505060405180910390fd5b60008114151515612070576040517f08c379a000000000000000000000000000000000000000000000000000000000815260040180806020018281038252601f8152602001807f496e6465782076616c75652073686f756c64206265206e6f6e2d7a65726f2e0081525060200191505060405180910390fd5b3373ffffffffffffffffffffffffffffffffffffffff166003600083815260200190815260200160002060050160009054906101000a900473ffffffffffffffffffffffffffffffffffffffff1673ffffffffffffffffffffffffffffffffffffffff1614151561216f576040517f08c379a00000000000000000000000000000000000000000000000000000000081526004018080602001828103825260278152602001807f5468652061737365747320646f206e6f742062656c6f6e6720746f207468652081526020017f73656e6465722e0000000000000000000000000000000000000000000000000081525060400191505060405180910390fd5b600060036000838152602001908152602001600020905060008160050160146101000a81548160ff021916908360018111156121a757fe5b02179055503373ffffffffffffffffffffffffffffffffffffffff167f3220f7dfeb53f7064161ddc9cd57c7f95357632597050fc54eba78a3c309085d836040518082815260200191505060405180910390a25050565b60056020528160005260406000208181548110151561221957fe5b90600052602060002001600091509150505481565b60606006600083815260200190815260200160002080548060200260200160405190810160405280929190818152602001828054801561228d57602002820191906000526020600020905b815481526020019060010190808311612279575b50505050509050919050565b6060600560008373ffffffffffffffffffffffffffffffffffffffff1673ffffffffffffffffffffffffffffffffffffffff16815260200190815260200160002080548060200260200160405190810160405280929190818152602001828054801561232457602002820191906000526020600020905b815481526020019060010190808311612310575b50505050509050919050565b6007602052806000526040600020600091509050806000015490806001015490806002018054600181600116156101000203166002900480601f0160208091040260200160405190810160405280929190818152602001828054600181600116156101000203166002900480156123e85780601f106123bd576101008083540402835291602001916123e8565b820191906000526020600020905b8154815290600101906020018083116123cb57829003601f168201915b505050505090806003018054600181600116156101000203166002900480601f0160208091040260200160405190810160405280929190818152602001828054600181600116156101000203166002900480156124865780601f1061245b57610100808354040283529160200191612486565b820191906000526020600020905b81548152906001019060200180831161246957829003601f168201915b505050505090806004018054600181600116156101000203166002900480601f0160208091040260200160405190810160405280929190818152602001828054600181600116156101000203166002900480156125245780601f106124f957610100808354040283529160200191612524565b820191906000526020600020905b81548152906001019060200180831161250757829003601f168201915b505050505090806005018054600181600116156101000203166002900480601f0160208091040260200160405190810160405280929190818152602001828054600181600116156101000203166002900480156125c25780601f10612597576101008083540402835291602001916125c2565b820191906000526020600020905b8154815290600101906020018083116125a557829003601f168201915b505050505090806006018054600181600116156101000203166002900480601f0160208091040260200160405190810160405280929190818152602001828054600181600116156101000203166002900480156126605780601f1061263557610100808354040283529160200191612660565b820191906000526020600020905b81548152906001019060200180831161264357829003601f168201915b5050505050908060070160009054906101000a900473ffffffffffffffffffffffffffffffffffffffff16905088565b60036020528060005260406000206000915090508060000154908060010160009054906101000a900473ffffffffffffffffffffffffffffffffffffffff1690806002018054600181600116156101000203166002900480601f0160208091040260200160405190810160405280929190818152602001828054600181600116156101000203166002900480156127685780601f1061273d57610100808354040283529160200191612768565b820191906000526020600020905b81548152906001019060200180831161274b57829003601f168201915b505050505090806003018054600181600116156101000203166002900480601f0160208091040260200160405190810160405280929190818152602001828054600181600116156101000203166002900480156128065780601f106127db57610100808354040283529160200191612806565b820191906000526020600020905b8154815290600101906020018083116127e957829003601f168201915b505050505090806004018054600181600116156101000203166002900480601f0160208091040260200160405190810160405280929190818152602001828054600181600116156101000203166002900480156128a45780601f10612879576101008083540402835291602001916128a4565b820191906000526020600020905b81548152906001019060200180831161288757829003601f168201915b5050505050908060050160009054906101000a900473ffffffffffffffffffffffffffffffffffffffff16908060050160149054906101000a900460ff16905087565b600a818154811015156128f657fe5b906000526020600020016000915054906101000a900473ffffffffffffffffffffffffffffffffffffffff1681565b60005481565b60046020528160005260406000208181548110151561294657fe5b90600052602060002001600091509150505481565b6060600860008373ffffffffffffffffffffffffffffffffffffffff1673ffffffffffffffffffffffffffffffffffffffff1681526020019081526020016000208054806020026020016040519081016040528092919081815260200182805480156129e657602002820191906000526020600020905b8154815260200190600101908083116129d2575b50505050509050919050565b606060008214151515612a6d576040517f08c379a000000000000000000000000000000000000000000000000000000000815260040180806020018281038252601f8152602001807f496e6465782076616c75652073686f756c64206265206e6f6e2d7a65726f2e0081525060200191505060405180910390fd5b60096000838152602001908152602001600020805480602002602001604051908101604052809291908181526020018280548015612aca57602002820191906000526020600020905b815481526020019060010190808311612ab6575b50505050509050919050565b600260003373ffffffffffffffffffffffffffffffffffffffff1673ffffffffffffffffffffffffffffffffffffffff16815260200190815260200160002060000160009054906101000a900473ffffffffffffffffffffffffffffffffffffffff1673ffffffffffffffffffffffffffffffffffffffff163373ffffffffffffffffffffffffffffffffffffffff1614151515612bdc576040517f08c379a00000000000000000000000000000000000000000000000000000000081526004018080602001828103825260188152602001807f53656e646572206973206e6f7420796574207369676e7570000000000000000081525060200191505060405180910390fd5b60408051908101604052803373ffffffffffffffffffffffffffffffffffffffff168152602001826002811115612c0f57fe5b815250600260003373ffffffffffffffffffffffffffffffffffffffff1673ffffffffffffffffffffffffffffffffffffffff16815260200190815260200160002060008201518160000160006101000a81548173ffffffffffffffffffffffffffffffffffffffff021916908373ffffffffffffffffffffffffffffffffffffffff16021790555060208201518160000160146101000a81548160ff02191690836002811115612cbc57fe5b0217905550905050806002811115612cd057fe5b600280811115612cdc57fe5b1415612d4957600a3390806001815401808255809150509060018203906000526020600020016000909192909190916101000a81548173ffffffffffffffffffffffffffffffffffffffff021916908373ffffffffffffffffffffffffffffffffffffffff160217905550505b3373ffffffffffffffffffffffffffffffffffffffff167fd93e0959190f2f576553317f9c17f456c15bfbcfd4c7f0c1f14cef985b453ebb8260405180826002811115612d9257fe5b60ff16815260200191505060405180910390a250565b60015481565b828054600181600116156101000203166002900490600052602060002090601f016020900481019282601f10612def57805160ff1916838001178555612e1d565b82800160010185558215612e1d579182015b82811115612e1c578251825591602001919060010190612e01565b5b509050612e2a9190612e5a565b5090565b815481835581811115612e5557818360005260206000209182019101612e549190612e5a565b5b505050565b612e7c91905b80821115612e78576000816000905550600101612e60565b5090565b9056fea165627a7a723058208ad77310c79eae7e0a73de22b712999bc36307ae01d0b747ba35951938e8aa4d0029",
  "source": "pragma solidity ^0.5.0;\n\ncontract AssetsManagement {\n\n  enum AccountType { DEALER, SERVICE_CENTER, DRIVER }\n  enum AssetState { CREATED, CALIBRATED }\n\n  struct ParticipantDetail {\n    address client;\n    AccountType accountType;\n  }\n\n  struct Asset {\n    uint256 index;\n    address creator;\n    string Item;\n    string SerialNumber;\n    string DateCommissioned;\n    address Administrator;\n    AssetState state;\n  }\n\n  struct Calibration {\n    uint256 index;\n    uint256 assetIndex;\n    string Date;\n    string SerialNumber;\n    string CalibrationType1;\n    string CalibrationType2;\n    string CalibrationType3;\n    address CalibratedBy;\n  }\n\n  uint256 public assetIndex;\n  uint256 public calibrationsIndex;\n\n  mapping(address => ParticipantDetail) public participants;\n  mapping(uint256 => Asset) public assets;\n  mapping(address => uint256[]) public assetsByCreator;\n  mapping(address => uint256[]) public assetsByAdministrator;\n  mapping(uint => uint256[]) public assetsByState;\n\n  mapping(uint256 => Calibration) public calibrations;\n  mapping(address => uint256[]) public calibrationsByCreator;\n  mapping(uint256 => uint256[]) public calibrationsByAssets;\n\n  address[] public allDrivers;\n\n  // EVENTS\n\n  event SignupEvent(address indexed sender, AccountType _type);\n  event AddAssetEvent(address indexed sender, uint256 assetid);\n  event AddCalibrationsEvent(address indexed sender, uint calibrationsid);\n  event UpdateAssetForCallibration(address indexed sender, uint assetid);\n\n  // EVENTS ENDS\n\n\n  constructor() public {\n    \n  }\n\n  function signup(\n    AccountType _type\n  ) public {\n    require(msg.sender != participants[msg.sender].client, \"Sender is not yet signup\");\n\n    participants[msg.sender] = ParticipantDetail(msg.sender, _type);\n\n    if(AccountType.DRIVER == _type){\n      allDrivers.push(msg.sender);\n    }\n\n    emit SignupEvent(msg.sender, _type);\n  }\n\n  function getAllDrivers() public view returns (address[] memory){\n    return allDrivers;\n  }\n\n\n  function addAsset (\n    string memory item,\n    string memory serialNumber,\n    string memory dateCommissioned,\n    address administrator\n  ) public {\n\n    require(\n      participants[msg.sender].accountType == AccountType.DEALER,\n      \"Sender is not a dealer.\"\n    );\n\n    assetIndex++;\n    assets[assetIndex] = Asset(\n      assetIndex,\n      msg.sender,\n      item,\n      serialNumber,\n      dateCommissioned,\n      administrator,\n      AssetState.CREATED\n    );\n\n    assetsByCreator[msg.sender].push(assetIndex);\n    assetsByAdministrator[administrator].push(assetIndex);\n    assetsByState[uint(AssetState.CREATED)].push(assetIndex);\n\n    emit AddAssetEvent(msg.sender, calibrationsIndex);\n  }\n\n  function getAssetByAdministrator(address _administrator) public view returns (uint256[] memory) {\n    return assetsByAdministrator[_administrator];\n  }\n\n  function getAssetByCreator(address _creator) public view returns (uint256[] memory) {\n    return assetsByCreator[_creator];\n  }\n\n  function getAssetByState (uint _status) public view returns (uint256[] memory) {\n    return assetsByState[_status];\n  }\n\n  function addCalibration (\n    uint256 _assetIndex,\n    string memory _date,\n    string memory _serialnumber,\n    string memory _calibrationType1,\n    string memory _calibrationType2,\n    string memory _calibrationType3\n  ) public {\n\n    require(\n      participants[msg.sender].accountType == AccountType.SERVICE_CENTER,\n      \"Sender is not a service center.\"\n    );\n    require(_assetIndex != 0, \"Index value should be non-zero.\");\n\n    calibrationsIndex++;\n    calibrations[calibrationsIndex] = Calibration(\n      calibrationsIndex,\n      _assetIndex,\n      _date,\n      _serialnumber,\n      _calibrationType1,\n      _calibrationType2,\n      _calibrationType3,\n      msg.sender\n    );\n\n    calibrationsByCreator[msg.sender].push(calibrationsIndex);\n    calibrationsByAssets[_assetIndex].push(calibrationsIndex);\n\n    assets[_assetIndex].state = AssetState.CALIBRATED;\n\n    bool isExist = false;\n    for(uint i=0; i<assetsByState[uint(AssetState.CALIBRATED)].length; i++){\n      if(assetsByState[uint(AssetState.CALIBRATED)][i] == _assetIndex){\n        isExist = true;\n      }\n    }\n    if(isExist == false){\n      assetsByState[uint(AssetState.CALIBRATED)].push(_assetIndex);\n    }\n\n    for ( uint i=0; i<assetsByState[uint(AssetState.CREATED)].length; i++ ) {\n      if(assetsByState[uint(AssetState.CREATED)][i] == _assetIndex){\n        //assetsByState[uint(AssetState.CREATED)][i] = 0;\n        for (uint j = i; j<assetsByState[uint(AssetState.CREATED)].length-1; j++){\n            assetsByState[uint(AssetState.CREATED)][j] = assetsByState[uint(AssetState.CREATED)][j+1];\n        }\n        delete assetsByState[uint(AssetState.CREATED)][assetsByState[uint(AssetState.CREATED)].length-1];\n        assetsByState[uint(AssetState.CREATED)].length--;\n\n        //delete assetsByState[uint(AssetState.CREATED)][i];\n        break;\n      }\n    }\n\n    emit AddCalibrationsEvent(msg.sender, calibrationsIndex);\n  }\n\n  function getCalibrationsByCreator(address _creator) public view returns (uint256[] memory) {\n    return calibrationsByCreator[_creator];\n  }\n\n  function getCalibrationsByAssets(uint256 _index) public view returns(uint256[] memory){\n    require(_index != 0, \"Index value should be non-zero.\");\n    return calibrationsByAssets[_index];\n  }\n\n  function updateAssetForCalibration(uint256 _index) public {\n    require(\n      participants[msg.sender].accountType == AccountType.DRIVER,\n      \"Sender is not a driver.\"\n    );\n    require(_index != 0, \"Index value should be non-zero.\");\n    require(assets[_index].Administrator == msg.sender, \"The assets do not belong to the sender.\");\n\n    Asset storage asset = assets[_index];\n    asset.state = AssetState.CREATED;\n\n    emit UpdateAssetForCallibration(msg.sender, _index);\n  }\n\n\n}\n",
  "sourcePath": "C:/xampp/htdocs/BLOCKCHAIN/Asset-Management/contracts/AssetsManagement.sol",
  "compiler": {
    "name": "solc",
    "version": "0.5.1+commit.c8a2cb62.Emscripten.clang"
  },
  "schemaVersion": "3.0.16",
  "updatedAt": "2019-10-30T08:36:02.983Z",
  "devdoc": {
    "methods": {}
  },
  "userdoc": {
    "methods": {}
  }
}